:03000000020CDB14
:0C0CDB00787FE4F6D8FD75815A020D22E6
:100B210052464944204241534544204341520050DA
:100B310041524B494E472053595354454D00535749
:100B410049504520594F5552204341524400534F7B
:100B51004349455459204D454D42455200534C4F50
:100B610054204E4F3A2031303100444F4F52204FE4
:100B710050454E494E470057454C434F4D45205631
:100B8100495357414A4545542100444F4F52204350
:100B91004C4F53494E4700456D70747920536C6F2B
:100BA10074733A004279652056495357414A454585
:100BB100542100534C4F54204E4F3A2031303200D3
:100BC10057454C434F4D4520525554494B41210007
:100BD10042796520525554494B412100534C4F54A1
:100BE100204E4F3A203130330057454C434F4D454D
:100BF10020525554554A412100427965205255549D
:100C0100554A4121004F55545349444520504552BE
:100C1100534F4E004E4F20534C4F5420464F5220BD
:090C2100594F5521004E494C00C9
:040F8800021F003212
:100DEC00E4FF7E3278217458F608DEFC7E007F32F8
:100DFC00C2A1C2A0C2A3C2A2120F7C120F227BFFFF
:100E0C007A0B7921120EC47FC0120F147BFF7A0B60
:100E1C007930120EC4120E677F01120F147F01126B
:100E2C000F147BFF7A0B793F120EC4E4F512C3E565
:100E3C0012940C74809480501D3098FD74132512FC
:100E4C00F8A699C29874132512F8E6F5993099FD15
:0B0E5C00C299051280D812080080C265
:10080000E513645660030208DCE5146449600302E2
:1008100008DCE515643160030208DCE5166432602B
:10082000030208DCE517643360030208DCE51864A2
:100830003460030208DCE519643560030208DCE576
:100840001A643660030208DCE51B643760030208A3
:10085000DCE51C643860030208DCE51D6439707C4B
:10086000E51E645370767F01120F147BFF7A0B79BB
:100870004F120EC47FC0120F147BFF7A0B795E12E9
:100880000EC4120F5F120E67E5216458701CE5203C
:1008900015207002151F120F07120EBE7FC0120F17
:1008A000147BFF7A0B7978020A65E52164456003C1
:1008B000020B200520E5207002051FD2A2C2A3C2B0
:1008C000A0C2A17521587F01120F14120EBE7FC065
:1008D000120F147BFF7A0B79A5020ABCE513645250
:1008E00060030209B8E514645560030209B8E51510
:1008F000643160030209B8E516643260030209B886
:10090000E517643360030209B8E518643460030234
:1009100009B8E519643560030209B8E51A64366060
:10092000030209B8E51B643760030209B8E51C64DB
:100930003860030209B8E51D6439707CE51E645314
:1009400070767F01120F147BFF7A0B794F120EC461
:100950007FC0120F147BFF7A0B79B4120EC4120FF2
:100960005F120F5FE5216458701CE52015207002AE
:10097000151F120F07120EBE7FC0120F147BFF7AD5
:100980000B79C1020A65E52164456003020B20056D
:1009900020E5207002051FD2A2C2A3C2A0C2A17589
:1009A00021587F01120F14120EBE7FC0120F147B4C
:1009B000FF7A0B79D1020ABCE51364526003020A84
:1009C000FEE51464556003020AFEE5156431600318
:1009D000020AFEE51664326003020AFEE51764337C
:1009E0006003020AFEE51864346003020AFEE5199A
:1009F00064356003020AFEE51A64366003020AFEEB
:100A0000E51B64376003020AFEE51C6438600302DC
:100A10000AFEE51D64396003020AFEE51E644A60B1
:100A200003020AFE7F01120F147BFF7A0B794F122B
:100A30000EC47FC0120F147BFF7A0B79DD120EC437
:100A4000120F5F120F5FE52164587041E5201520F9
:100A50007002151F120F07120EBE7FC0120F147BFB
:100A6000FF7A0B79EA120EC4120E67C2A0C2A1125D
:100A70000E677F01120F14C2A0D2A17BFF7A0B79FF
:100A80008B120EC4120E67C2A0C2A18055E521646C
:100A9000456003020B200520E5207002051FD2A24D
:100AA000C2A3C2A0C2A17521587F01120F14120E59
:100AB000BE7FC0120F147BFF7A0B79FA120EC4129C
:100AC0000E67C2A2C2A3120E677F01120F14C2A248
:100AD000D2A37BFF7A0B798B120EC4120E67C2A2CF
:100AE000C2A37F01120F147BFF7A0B7998120EC4F8
:100AF0007FC0120F14AF20AE1F120D67801C7F0144
:100B0000120F147BFF7A0C7906120EC47FC0120FED
:100B1000147BFF7A0C7915120EC4120E67120E6741
:010B200022B2
:100F22007F38120F147F01120F147F10120F147FDB
:090F32000C120F147F80020F1451
:0D0F0700D2A0C2A1C2A2C2A37521457F01E4
:0E0F14008F90C2A5C2A6D2A7120F5FC2A7225D
:0E0F6E008F90D2A5C2A6D2A7120F5FC2A722F3
:0E0F5F00E4FFFE0FBF00010EBE27F8BF10F525
:010F6D002261
:060EBE007BFF7A0B796B4B
:060EC4008B578A58895982
:100ECA00E4F55AAB57AA58A959855A827583001274
:0C0EDA000C43FF6007120F6E055A80E702
:010EE60022E9
:0C0F7C00759850758920758DFDD28E226D
:100E6700E4F557F558900000AF82AE83E4FCFD7BB4
:100E7700407A9CF9F8D3120CC54003A380EA0558C1
:0C0E8700E558700205576402455770D909
:010E9300223C
:100D6700AB07AA06E4F553F5547C007D0AAF03AE42
:100D770002120C70E55425E02408F8A60408A6051D
:100D87007C007D0AAF03AE02120C70AA06AB070502
:100D970054E554700205536402455370CC755500F1
:100DA700755601E55625E02408F808E62430FF12B9
:100DB7000F3B7F017E00120EE7E5561556700215B0
:100DC70055C3E5556480948050D9E520451F700EC2
:100DD7007F8D120F147BFF7A0C7926120E947F0AEF
:050DE7007E00020EE792
:100F3B008F90D2A5C2A6D2A77FF47E01120F4DC20D
:020F4B00A722DB
:100EE700E4FDFCD3ED9FEC9E5015E4FBFA0BBB0031
:0F0EF700010ABA04F8BBFCF50DBD00010C80E444
:010F060022C8
:100E94008B578A588959AB57AA58A959120C2AFF5B
:100EA4006017120F3B7FD07E07120F4D7401255936
:0A0EB400F559E43558F55880DD22A9
:100F4D00E4FDFCC3ED9FEC9E50070DBD00010C8030
:010F5D00F2A1
:010F5E002270
:100CE700020DECE493A3F8E493A34003F68001F22A
:100CF70008DFF48029E493A3F85407240CC8C3330E
:100D0700C4540F4420C8834004F456800146F6DFDC
:100D1700E4800B0102040810204080900F88E47ED5
:100D2700019360BCA3FF543F30E509541FFEE493D1
:100D3700A360010ECF54C025E060A840B8E493A398
:100D4700FAE493A3F8E493A3C8C582C8CAC583CAC3
:100D5700F0A3C8C582C8CAC583CADFE9DEE780BE7B
:010F8C000064
:100C2A00BB010689828A83E0225002E722BBFE02C8
:090C3A00E32289828A83E49322FB
:100C4300BB010CE58229F582E5833AF583E0225066
:100C530006E92582F8E622BBFE06E92582F8E222B0
:0D0C6300E58229F582E5833AF583E49322CA
:100C7000BC000BBE0029EF8DF084FFADF022E4CC68
:100C8000F875F008EF2FFFEE33FEEC33FCEE9DEC31
:100C9000984005FCEE9DFE0FD5F0E9E4CEFD22ED77
:100CA000F8F5F0EE8420D21CFEADF075F008EF2FC1
:100CB000FFED33FD4007985006D5F0F222C398FDB2
:050CC0000FD5F0EA224F
:100CC500EB9FF5F0EA9E42F0E99D42F0EC6480C8A6
:060CD50064809845F02246
:00000001FF
